{
  "address": "0xcC4c712dadeA7C7Bf2Fe0eb6634D3f4f66705184",
  "abi": [
    {
      "stateMutability": "payable",
      "type": "fallback"
    },
    {
      "inputs": [
        {
          "components": [
            {
              "internalType": "address",
              "name": "receiver",
              "type": "address"
            },
            {
              "internalType": "uint256",
              "name": "value",
              "type": "uint256"
            },
            {
              "internalType": "bytes",
              "name": "data",
              "type": "bytes"
            }
          ],
          "internalType": "struct Multicall.Call[]",
          "name": "calls",
          "type": "tuple[]"
        }
      ],
      "name": "multicall",
      "outputs": [],
      "stateMutability": "payable",
      "type": "function"
    },
    {
      "stateMutability": "payable",
      "type": "receive"
    }
  ],
  "transactionHash": "0xdbf82fd6cb87dbe4e6d576fae067d0b86b29dc47b2df9f421c9af33cc82a1012",
  "args": [],
  "numDeployments": 2,
  "solcInputHash": "4cbe53fb65cf693c72d0565c1fd5f9cb",
  "bytecode": "0x60808060405234601557610492908161001b8239f35b600080fdfe60806040526004361015610010575b005b60003560e01c631749e1e30361000e576020366003190112610159576004356001600160401b03811161015957366023820112156101595760048101356001600160401b03811161015e578060051b9160405191610071602085018461018f565b825260246020830193820101903682116101595760248101935b82851061009b5761000e846102e5565b84356001600160401b038111610159578201906060602319833603011261015957604051916100c983610174565b60248101356001600160a01b03811681036101595783526044810135602084015260648101356001600160401b0381116101595760249101019036601f830112156101595781359261011a846101b2565b610127604051918261018f565b84815236602086860101116101595760006020868197828098018386013783010152604082015281520194019361008b565b600080fd5b634e487b7160e01b600052604160045260246000fd5b606081019081106001600160401b0382111761015e57604052565b601f909101601f19168101906001600160401b0382119082101761015e57604052565b6001600160401b03811161015e57601f01601f191660200190565b80518210156101e15760209160051b010190565b634e487b7160e01b600052603260045260246000fd5b3d15610222573d90610208826101b2565b91610216604051938461018f565b82523d6000602084013e565b606090565b60005b83811061023a5750506000910152565b818101518382015260200161022a565b9061025d60209282815194859201610227565b0190565b156102695750565b6044604051809262461bcd60e51b8252602060048301526102998151809281602486015260208686019101610227565b601f01601f19168101030190fd5b156102ae57565b60405162461bcd60e51b815260206004820152600f60248201526e1d1c985b9cd9995c8819985a5b1959608a1b6044820152606490fd5b9060005b82518110156103f5576001906000602061030383876101cd565b510151156103b857506103b261039f600080610330610322868a6101cd565b51516001600160a01b031690565b602061033c878b6101cd565b51015190604061034c888c6101cd565b51015191602083519301915af16103616101f7565b505b6103ad61036f8561041b565b60405176026bab63a34b1b0b636103330b4b632b21030ba103a3c1604d1b6020820152938491603783019061024a565b03601f19810184528361018f565b610261565b016102e9565b61039f816103b2926103cd610322868a6101cd565b60406103d9878b6101cd565b5101519082602083519301915af16103ef6101f7565b50610363565b509050476103ff57565b610419600080808047335af16104136101f7565b506102a7565b565b90604051600a602082015b600019019360308282060185530492831561044357600a90610426565b925060409060208482030193601f19019384520160405256fea264697066735822122052f6319442749be431acda47cb4c590604ec2c308e3b48f773580bbafe466a6164736f6c634300081c0033",
  "devdoc": {
    "kind": "dev",
    "methods": {},
    "version": 1
  },
  "userdoc": {
    "kind": "user",
    "methods": {},
    "version": 1
  },
  "storageLayout": {
    "storage": [],
    "types": null
  }
}