{
  "address": "0x5FbDB2315678afecb367f032d93F642f64180aa3",
  "abi": [
    {
      "stateMutability": "payable",
      "type": "fallback"
    },
    {
      "inputs": [
        {
          "components": [
            {
              "internalType": "address",
              "name": "receiver",
              "type": "address"
            },
            {
              "internalType": "uint256",
              "name": "value",
              "type": "uint256"
            },
            {
              "internalType": "bytes",
              "name": "data",
              "type": "bytes"
            }
          ],
          "internalType": "struct Multicall.Call[]",
          "name": "calls",
          "type": "tuple[]"
        }
      ],
      "name": "multicall",
      "outputs": [],
      "stateMutability": "payable",
      "type": "function"
    },
    {
      "stateMutability": "payable",
      "type": "receive"
    }
  ],
  "transactionHash": "0x242ed295648b881f094e60764ee93ea4ebebb34fee4b4367b25c77e9770a13ec",
  "args": [],
  "numDeployments": 1,
  "solcInputHash": "690e7b6ad84e8e549dfb9b1416bdacdf",
  "bytecode": "0x6080806040523460155761037b908161001b8239f35b600080fdfe60806040526004361015610010575b005b60003560e01c631749e1e30361000e57602036600319011261029a576004356001600160401b03811161029a573660238201121561029a576004810135906001600160401b03821161029f578160051b90602460206100708185016102b5565b8095815201928201019036821161029a5760248101925b8284106101d1578460005b815181101561018057600060206100a983856102f5565b5101511561014257506000806001600160a01b036100c784866102f5565b51511660206100d685876102f5565b5101519060406100e686886102f5565b51015191602083519301915af16100fb61031f565b505b1561010a57600101610092565b60405162461bcd60e51b815260206004820152601060248201526f135d5b1d1a58d85b1b0819985a5b195960821b6044820152606490fd5b806001600160a01b0361015584866102f5565b515116604061016485876102f5565b5101519082602083519301915af161017a61031f565b506100fd565b4761018757005b600080808047335af161019861031f565b50156101a057005b60405162461bcd60e51b815260206004820152600960248201526803a3930b739b332b9160bd1b6044820152606490fd5b83356001600160401b03811161029a578201906060602319833603011261029a5760405191606083016001600160401b0381118482101761029f5760405260248101356001600160a01b038116810361029a5783526044810135602084015260648101356001600160401b03811161029a5760249101019036601f8301121561029a57813592610268610263856102da565b6102b5565b848152366020868601011161029a57600060208681978280980183860137830101526040820152815201930192610087565b600080fd5b634e487b7160e01b600052604160045260246000fd5b6040519190601f01601f191682016001600160401b0381118382101761029f57604052565b6001600160401b03811161029f57601f01601f191660200190565b80518210156103095760209160051b010190565b634e487b7160e01b600052603260045260246000fd5b3d15610340573d90610333610263836102da565b9182523d6000602084013e565b60609056fea2646970667358221220e618849cc11d391659e0049ee416082f94d5275189d7f7cdc0b70f150413aa7b64736f6c634300081c0033",
  "devdoc": {
    "kind": "dev",
    "methods": {},
    "version": 1
  },
  "userdoc": {
    "kind": "user",
    "methods": {},
    "version": 1
  },
  "storageLayout": {
    "storage": [],
    "types": null
  }
}