{
  "_format": "hh3-artifact-1",
  "contractName": "EIP7702Multicall",
  "sourceName": "contracts/src/EIP7702Multicall.sol",
  "abi": [
    {
      "stateMutability": "payable",
      "type": "fallback"
    },
    {
      "inputs": [
        {
          "components": [
            {
              "internalType": "address",
              "name": "to",
              "type": "address"
            },
            {
              "internalType": "uint256",
              "name": "value",
              "type": "uint256"
            },
            {
              "internalType": "bytes",
              "name": "data",
              "type": "bytes"
            }
          ],
          "internalType": "struct EIP7702Multicall.Call[]",
          "name": "calls",
          "type": "tuple[]"
        }
      ],
      "name": "write",
      "outputs": [],
      "stateMutability": "payable",
      "type": "function"
    },
    {
      "stateMutability": "payable",
      "type": "receive"
    }
  ],
  "bytecode": "0x6080604052348015600e575f5ffd5b506105f38061001c5f395ff3fe60806040526004361061001d575f3560e01c806396cd723b1461001f575b005b61001d61002d36600461041c565b5f5b818110156102af575f83838381811061004a5761004a61048d565b905060200281019061005c91906104a1565b61006a9060208101906104bf565b6001600160a01b0316146102a7575f5f84848481811061008c5761008c61048d565b905060200281019061009e91906104a1565b602001351115610195578383838181106100ba576100ba61048d565b90506020028101906100cc91906104a1565b6100da9060208101906104bf565b6001600160a01b03168484848181106100f5576100f561048d565b905060200281019061010791906104a1565b6020013585858581811061011d5761011d61048d565b905060200281019061012f91906104a1565b61013d9060408101906104ec565b60405161014b929190610536565b5f6040518083038185875af1925050503d805f8114610185576040519150601f19603f3d011682016040523d82523d5f602084013e61018a565b606091505b505080915050610254565b8383838181106101a7576101a761048d565b90506020028101906101b991906104a1565b6101c79060208101906104bf565b6001600160a01b03168484848181106101e2576101e261048d565b90506020028101906101f491906104a1565b6102029060408101906104ec565b604051610210929190610536565b5f604051808303815f865af19150503d805f8114610249576040519150601f19603f3d011682016040523d82523d5f602084013e61024e565b606091505b50909150505b8061025e836102b4565b60405160200161026e9190610545565b604051602081830303815290604052906102a45760405162461bcd60e51b815260040161029b9190610574565b60405180910390fd5b50505b60010161002f565b505050565b60605f6102c083610344565b60010190505f8167ffffffffffffffff8111156102df576102df6105a9565b6040519080825280601f01601f191660200182016040528015610309576020820181803683370190505b5090508181016020015b5f19016f181899199a1a9b1b9c1cb0b131b232b360811b600a86061a8153600a850494508461031357509392505050565b5f8072184f03e93ff9f4daa797ed6e38ed64bf6a1f0160401b83106103825772184f03e93ff9f4daa797ed6e38ed64bf6a1f0160401b830492506040015b6d04ee2d6d415b85acef810000000083106103ae576d04ee2d6d415b85acef8100000000830492506020015b662386f26fc1000083106103cc57662386f26fc10000830492506010015b6305f5e10083106103e4576305f5e100830492506008015b61271083106103f857612710830492506004015b6064831061040a576064830492506002015b600a8310610416576001015b92915050565b5f5f6020838503121561042d575f5ffd5b823567ffffffffffffffff811115610443575f5ffd5b8301601f81018513610453575f5ffd5b803567ffffffffffffffff811115610469575f5ffd5b8560208260051b840101111561047d575f5ffd5b6020919091019590945092505050565b634e487b7160e01b5f52603260045260245ffd5b5f8235605e198336030181126104b5575f5ffd5b9190910192915050565b5f602082840312156104cf575f5ffd5b81356001600160a01b03811681146104e5575f5ffd5b9392505050565b5f5f8335601e19843603018112610501575f5ffd5b83018035915067ffffffffffffffff82111561051b575f5ffd5b60200191503681900382131561052f575f5ffd5b9250929050565b818382375f9101908152919050565b6c03330b4b632b21030ba103a3c1609d1b81525f82518060208501600d85015e5f9201600d0191825250919050565b602081525f82518060208401528060208501604085015e5f604082850101526040601f19601f83011684010191505092915050565b634e487b7160e01b5f52604160045260245ffdfea2646970667358221220279aeb153be69362e9a9f9910915e402ccf6c657fe899139c7db969a109a790064736f6c634300081c0033",
  "linkReferences": {},
  "deployedLinkReferences": {},
  "immutableReferences": {},
  "inputSourceName": "project/contracts/src/EIP7702Multicall.sol",
  "buildInfoId": "solc-0_8_28-ec5fa8a3dd5cc468591b4b2986801a15ee483c53"
}