{
  "_format": "hh3-artifact-1",
  "contractName": "Multicall",
  "sourceName": "contracts/src/Multicall.sol",
  "abi": [
    {
      "inputs": [
        {
          "internalType": "address",
          "name": "_owner",
          "type": "address"
        }
      ],
      "stateMutability": "nonpayable",
      "type": "constructor"
    },
    {
      "inputs": [
        {
          "internalType": "address",
          "name": "owner",
          "type": "address"
        }
      ],
      "name": "OwnableInvalidOwner",
      "type": "error"
    },
    {
      "inputs": [
        {
          "internalType": "address",
          "name": "account",
          "type": "address"
        }
      ],
      "name": "OwnableUnauthorizedAccount",
      "type": "error"
    },
    {
      "anonymous": false,
      "inputs": [
        {
          "indexed": true,
          "internalType": "address",
          "name": "previousOwner",
          "type": "address"
        },
        {
          "indexed": true,
          "internalType": "address",
          "name": "newOwner",
          "type": "address"
        }
      ],
      "name": "OwnershipTransferred",
      "type": "event"
    },
    {
      "stateMutability": "payable",
      "type": "fallback"
    },
    {
      "inputs": [
        {
          "internalType": "address",
          "name": "",
          "type": "address"
        }
      ],
      "name": "isAdmin",
      "outputs": [
        {
          "internalType": "bool",
          "name": "",
          "type": "bool"
        }
      ],
      "stateMutability": "view",
      "type": "function"
    },
    {
      "inputs": [],
      "name": "owner",
      "outputs": [
        {
          "internalType": "address",
          "name": "",
          "type": "address"
        }
      ],
      "stateMutability": "view",
      "type": "function"
    },
    {
      "inputs": [
        {
          "components": [
            {
              "internalType": "address",
              "name": "to",
              "type": "address"
            },
            {
              "internalType": "uint256",
              "name": "value",
              "type": "uint256"
            },
            {
              "internalType": "bytes",
              "name": "data",
              "type": "bytes"
            }
          ],
          "internalType": "struct Multicall.Call[]",
          "name": "calls",
          "type": "tuple[]"
        }
      ],
      "name": "read",
      "outputs": [
        {
          "internalType": "bytes[]",
          "name": "",
          "type": "bytes[]"
        }
      ],
      "stateMutability": "view",
      "type": "function"
    },
    {
      "inputs": [],
      "name": "renounceOwnership",
      "outputs": [],
      "stateMutability": "nonpayable",
      "type": "function"
    },
    {
      "inputs": [
        {
          "internalType": "address",
          "name": "admin",
          "type": "address"
        },
        {
          "internalType": "bool",
          "name": "setAsAdmin",
          "type": "bool"
        }
      ],
      "name": "setAdmin",
      "outputs": [],
      "stateMutability": "nonpayable",
      "type": "function"
    },
    {
      "inputs": [
        {
          "internalType": "address",
          "name": "newOwner",
          "type": "address"
        }
      ],
      "name": "transferOwnership",
      "outputs": [],
      "stateMutability": "nonpayable",
      "type": "function"
    },
    {
      "inputs": [
        {
          "components": [
            {
              "internalType": "address",
              "name": "to",
              "type": "address"
            },
            {
              "internalType": "uint256",
              "name": "value",
              "type": "uint256"
            },
            {
              "internalType": "bytes",
              "name": "data",
              "type": "bytes"
            }
          ],
          "internalType": "struct Multicall.Call[]",
          "name": "calls",
          "type": "tuple[]"
        }
      ],
      "name": "write",
      "outputs": [],
      "stateMutability": "payable",
      "type": "function"
    },
    {
      "stateMutability": "payable",
      "type": "receive"
    }
  ],
  "bytecode": "0x6080604052348015600e575f5ffd5b50604051610c7a380380610c7a833981016040819052602b9160b4565b806001600160a01b038116605857604051631e4fbdf760e01b81525f600482015260240160405180910390fd5b605f816065565b505060df565b5f80546001600160a01b038381166001600160a01b0319831681178455604051919092169283917f8be0079c531659141344cd1fd0a4f28419497f9722a3daafe3b4186f6b6457e09190a35050565b5f6020828403121560c3575f5ffd5b81516001600160a01b038116811460d8575f5ffd5b9392505050565b610b8e806100ec5f395ff3fe60806040526004361061006c575f3560e01c8063715018a61161004a578063715018a6146101005780638da5cb5b1461011457806396cd723b1461013a578063f2fde38b1461014d57005b806322f944321461006e57806324d7806c146100a35780634b0bddd2146100e1575b005b348015610079575f5ffd5b5061008d6100883660046108d6565b61016c565b60405161009a9190610975565b60405180910390f35b3480156100ae575f5ffd5b506100d16100bd3660046109f3565b60016020525f908152604090205460ff1681565b604051901515815260200161009a565b3480156100ec575f5ffd5b5061006c6100fb366004610a13565b610308565b34801561010b575f5ffd5b5061006c61033a565b34801561011f575f5ffd5b505f546040516001600160a01b03909116815260200161009a565b61006c6101483660046108d6565b61034d565b348015610158575f5ffd5b5061006c6101673660046109f3565b6106b6565b60605f8267ffffffffffffffff81111561018857610188610a4c565b6040519080825280602002602001820160405280156101bb57816020015b60608152602001906001900390816101a65790505b5090505f5b83811015610300575f5f8686848181106101dc576101dc610a60565b90506020028101906101ee9190610a74565b6101fc9060208101906109f3565b6001600160a01b031687878581811061021757610217610a60565b90506020028101906102299190610a74565b610237906040810190610a92565b604051610245929190610adc565b5f60405180830381855afa9150503d805f811461027d576040519150601f19603f3d011682016040523d82523d5f602084013e610282565b606091505b509150915081610291846106f3565b6040516020016102a19190610b02565b604051602081830303815290604052906102d75760405162461bcd60e51b81526004016102ce9190610b25565b60405180910390fd5b50808484815181106102eb576102eb610a60565b602090810291909101015250506001016101c0565b509392505050565b610310610783565b6001600160a01b03919091165f908152600160205260409020805460ff1916911515919091179055565b610342610783565b61034b5f6107af565b565b5f546001600160a01b03163314806103735750335f9081526001602052604090205460ff165b6103ab5760405162461bcd60e51b81526020600482015260096024820152683737ba1030b236b4b760b91b60448201526064016102ce565b5f5b81811015610624575f8383838181106103c8576103c8610a60565b90506020028101906103da9190610a74565b6103e89060208101906109f3565b6001600160a01b03161461061c575f5f84848481811061040a5761040a610a60565b905060200281019061041c9190610a74565b6020013511156105135783838381811061043857610438610a60565b905060200281019061044a9190610a74565b6104589060208101906109f3565b6001600160a01b031684848481811061047357610473610a60565b90506020028101906104859190610a74565b6020013585858581811061049b5761049b610a60565b90506020028101906104ad9190610a74565b6104bb906040810190610a92565b6040516104c9929190610adc565b5f6040518083038185875af1925050503d805f8114610503576040519150601f19603f3d011682016040523d82523d5f602084013e610508565b606091505b5050809150506105d2565b83838381811061052557610525610a60565b90506020028101906105379190610a74565b6105459060208101906109f3565b6001600160a01b031684848481811061056057610560610a60565b90506020028101906105729190610a74565b610580906040810190610a92565b60405161058e929190610adc565b5f604051808303815f865af19150503d805f81146105c7576040519150601f19603f3d011682016040523d82523d5f602084013e6105cc565b606091505b50909150505b806105dc836106f3565b6040516020016105ec9190610b37565b604051602081830303815290604052906106195760405162461bcd60e51b81526004016102ce9190610b25565b50505b6001016103ad565b5047156106b2576040515f90339047908381818185875af1925050503d805f811461066a576040519150601f19603f3d011682016040523d82523d5f602084013e61066f565b606091505b50509050806106b05760405162461bcd60e51b815260206004820152600d60248201526c1c99599d5b990819985a5b1959609a1b60448201526064016102ce565b505b5050565b6106be610783565b6001600160a01b0381166106e757604051631e4fbdf760e01b81525f60048201526024016102ce565b6106f0816107af565b50565b60605f6106ff836107fe565b60010190505f8167ffffffffffffffff81111561071e5761071e610a4c565b6040519080825280601f01601f191660200182016040528015610748576020820181803683370190505b5090508181016020015b5f19016f181899199a1a9b1b9c1cb0b131b232b360811b600a86061a8153600a850494508461075257509392505050565b5f546001600160a01b0316331461034b5760405163118cdaa760e01b81523360048201526024016102ce565b5f80546001600160a01b038381166001600160a01b0319831681178455604051919092169283917f8be0079c531659141344cd1fd0a4f28419497f9722a3daafe3b4186f6b6457e09190a35050565b5f8072184f03e93ff9f4daa797ed6e38ed64bf6a1f0160401b831061083c5772184f03e93ff9f4daa797ed6e38ed64bf6a1f0160401b830492506040015b6d04ee2d6d415b85acef81000000008310610868576d04ee2d6d415b85acef8100000000830492506020015b662386f26fc10000831061088657662386f26fc10000830492506010015b6305f5e100831061089e576305f5e100830492506008015b61271083106108b257612710830492506004015b606483106108c4576064830492506002015b600a83106108d0576001015b92915050565b5f5f602083850312156108e7575f5ffd5b823567ffffffffffffffff8111156108fd575f5ffd5b8301601f8101851361090d575f5ffd5b803567ffffffffffffffff811115610923575f5ffd5b8560208260051b8401011115610937575f5ffd5b6020919091019590945092505050565b5f81518084528060208401602086015e5f602082860101526020601f19601f83011685010191505092915050565b5f602082016020835280845180835260408501915060408160051b8601019250602086015f5b828110156109cc57603f198786030184526109b7858351610947565b9450602093840193919091019060010161099b565b50929695505050505050565b80356001600160a01b03811681146109ee575f5ffd5b919050565b5f60208284031215610a03575f5ffd5b610a0c826109d8565b9392505050565b5f5f60408385031215610a24575f5ffd5b610a2d836109d8565b915060208301358015158114610a41575f5ffd5b809150509250929050565b634e487b7160e01b5f52604160045260245ffd5b634e487b7160e01b5f52603260045260245ffd5b5f8235605e19833603018112610a88575f5ffd5b9190910192915050565b5f5f8335601e19843603018112610aa7575f5ffd5b83018035915067ffffffffffffffff821115610ac1575f5ffd5b602001915036819003821315610ad5575f5ffd5b9250929050565b818382375f9101908152919050565b5f81518060208401855e5f93019283525090919050565b6e03330b4b632b21030ba1031b0b6361608d1b81525f610a0c600f830184610aeb565b602081525f610a0c6020830184610947565b6c03330b4b632b21030ba103a3c1609d1b81525f610a0c600d830184610aeb56fea2646970667358221220dbe271c81026babc9f5d98ad88f77be19c9e1e03476f3ddcaca21c153cd449d564736f6c634300081c0033",
  "linkReferences": {},
  "deployedLinkReferences": {},
  "immutableReferences": {},
  "inputSourceName": "project/contracts/src/Multicall.sol",
  "buildInfoId": "solc-0_8_28-19d6b05938766ae2d9f081756e7fd6d02b2bb4b7"
}